{
  "_format": "hh-sol-artifact-1",
  "contractName": "Crowdfunding",
  "sourceName": "contracts/Crowdfunding.sol",
  "abi": [
    {
      "inputs": [],
      "stateMutability": "nonpayable",
      "type": "constructor"
    },
    {
      "anonymous": false,
      "inputs": [
        {
          "indexed": false,
          "internalType": "uint256",
          "name": "campaignId",
          "type": "uint256"
        },
        {
          "indexed": false,
          "internalType": "string",
          "name": "title",
          "type": "string"
        },
        {
          "indexed": false,
          "internalType": "address",
          "name": "benefactor",
          "type": "address"
        },
        {
          "indexed": false,
          "internalType": "uint256",
          "name": "goal",
          "type": "uint256"
        },
        {
          "indexed": false,
          "internalType": "uint256",
          "name": "deadline",
          "type": "uint256"
        }
      ],
      "name": "CampaignCreated",
      "type": "event"
    },
    {
      "anonymous": false,
      "inputs": [
        {
          "indexed": false,
          "internalType": "uint256",
          "name": "campaignId",
          "type": "uint256"
        },
        {
          "indexed": false,
          "internalType": "uint256",
          "name": "amountRaised",
          "type": "uint256"
        }
      ],
      "name": "CampaignEnded",
      "type": "event"
    },
    {
      "anonymous": false,
      "inputs": [
        {
          "indexed": false,
          "internalType": "uint256",
          "name": "campaignId",
          "type": "uint256"
        },
        {
          "indexed": false,
          "internalType": "address",
          "name": "donor",
          "type": "address"
        },
        {
          "indexed": false,
          "internalType": "uint256",
          "name": "amount",
          "type": "uint256"
        }
      ],
      "name": "DonationReceived",
      "type": "event"
    },
    {
      "anonymous": false,
      "inputs": [
        {
          "indexed": false,
          "internalType": "address",
          "name": "sender",
          "type": "address"
        },
        {
          "indexed": false,
          "internalType": "uint256",
          "name": "amount",
          "type": "uint256"
        },
        {
          "indexed": false,
          "internalType": "bytes",
          "name": "data",
          "type": "bytes"
        }
      ],
      "name": "FallbackCalled",
      "type": "event"
    },
    {
      "anonymous": false,
      "inputs": [
        {
          "indexed": false,
          "internalType": "address",
          "name": "sender",
          "type": "address"
        },
        {
          "indexed": false,
          "internalType": "uint256",
          "name": "amount",
          "type": "uint256"
        }
      ],
      "name": "Received",
      "type": "event"
    },
    {
      "stateMutability": "payable",
      "type": "fallback"
    },
    {
      "inputs": [
        {
          "internalType": "uint256",
          "name": "",
          "type": "uint256"
        }
      ],
      "name": "campaigns",
      "outputs": [
        {
          "internalType": "string",
          "name": "title",
          "type": "string"
        },
        {
          "internalType": "string",
          "name": "description",
          "type": "string"
        },
        {
          "internalType": "address",
          "name": "benefactor",
          "type": "address"
        },
        {
          "internalType": "uint256",
          "name": "goal",
          "type": "uint256"
        },
        {
          "internalType": "uint256",
          "name": "deadline",
          "type": "uint256"
        },
        {
          "internalType": "uint256",
          "name": "amountRaised",
          "type": "uint256"
        },
        {
          "internalType": "bool",
          "name": "isEnded",
          "type": "bool"
        }
      ],
      "stateMutability": "view",
      "type": "function"
    },
    {
      "inputs": [
        {
          "internalType": "string",
          "name": "_title",
          "type": "string"
        },
        {
          "internalType": "string",
          "name": "_description",
          "type": "string"
        },
        {
          "internalType": "address",
          "name": "_benefactor",
          "type": "address"
        },
        {
          "internalType": "uint256",
          "name": "_goal",
          "type": "uint256"
        },
        {
          "internalType": "uint256",
          "name": "_duration",
          "type": "uint256"
        }
      ],
      "name": "createCampaign",
      "outputs": [],
      "stateMutability": "nonpayable",
      "type": "function"
    },
    {
      "inputs": [
        {
          "internalType": "uint256",
          "name": "_campaignId",
          "type": "uint256"
        }
      ],
      "name": "donate",
      "outputs": [],
      "stateMutability": "payable",
      "type": "function"
    },
    {
      "inputs": [
        {
          "internalType": "uint256",
          "name": "_campaignId",
          "type": "uint256"
        }
      ],
      "name": "endCampaign",
      "outputs": [],
      "stateMutability": "nonpayable",
      "type": "function"
    },
    {
      "inputs": [],
      "name": "owner",
      "outputs": [
        {
          "internalType": "address",
          "name": "",
          "type": "address"
        }
      ],
      "stateMutability": "view",
      "type": "function"
    },
    {
      "inputs": [],
      "name": "withdrawLeftover",
      "outputs": [],
      "stateMutability": "nonpayable",
      "type": "function"
    },
    {
      "stateMutability": "payable",
      "type": "receive"
    }
  ],
  "bytecode": "0x608060405234801561001057600080fd5b50336000806101000a81548173ffffffffffffffffffffffffffffffffffffffff021916908373ffffffffffffffffffffffffffffffffffffffff1602179055506115ce806100606000396000f3fe6080604052600436106100595760003560e01c8063141961bc146100d95780638da5cb5b1461011c5780639304d12414610147578063a525d23714610170578063dd0408ae14610187578063f14faf6f146101b057610099565b36610099577f88a5966d370b9919b20f3e2c13ff65706f196a4e32cc2c12bf57088f88525874333460405161008f929190610a21565b60405180910390a1005b7faca09dd456ca888dccf8cc966e382e6e3042bb7e4d2d7815015f844edeafce4233346000366040516100cf9493929190610aa8565b60405180910390a1005b3480156100e557600080fd5b5061010060048036038101906100fb9190610b28565b6101cc565b6040516101139796959493929190610bef565b60405180910390f35b34801561012857600080fd5b5061013161035b565b60405161013e9190610c6c565b60405180910390f35b34801561015357600080fd5b5061016e60048036038101906101699190610dd9565b61037f565b005b34801561017c57600080fd5b50610185610554565b005b34801561019357600080fd5b506101ae60048036038101906101a99190610b28565b61064b565b005b6101ca60048036038101906101c59190610b28565b610820565b005b600181815481106101dc57600080fd5b90600052602060002090600702016000915090508060000180546101ff90610ebb565b80601f016020809104026020016040519081016040528092919081815260200182805461022b90610ebb565b80156102785780601f1061024d57610100808354040283529160200191610278565b820191906000526020600020905b81548152906001019060200180831161025b57829003601f168201915b50505050509080600101805461028d90610ebb565b80601f01602080910402602001604051908101604052809291908181526020018280546102b990610ebb565b80156103065780601f106102db57610100808354040283529160200191610306565b820191906000526020600020905b8154815290600101906020018083116102e957829003601f168201915b5050505050908060020160009054906101000a900473ffffffffffffffffffffffffffffffffffffffff16908060030154908060040154908060050154908060060160009054906101000a900460ff16905087565b60008054906101000a900473ffffffffffffffffffffffffffffffffffffffff1681565b600082116103c2576040517f08c379a00000000000000000000000000000000000000000000000000000000081526004016103b990610f38565b60405180910390fd5b600081426103d09190610f87565b905060016040518060e001604052808881526020018781526020018673ffffffffffffffffffffffffffffffffffffffff16815260200185815260200183815260200160008152602001600015158152509080600181540180825580915050600190039060005260206000209060070201600090919091909150600082015181600001908161045f9190611167565b5060208201518160010190816104759190611167565b5060408201518160020160006101000a81548173ffffffffffffffffffffffffffffffffffffffff021916908373ffffffffffffffffffffffffffffffffffffffff160217905550606082015181600301556080820151816004015560a0820151816005015560c08201518160060160006101000a81548160ff02191690831515021790555050507f2e4be7f0a0275b06869815699165e220352ac35bdea8c927565a098fa77dffb66001808054905061052f9190611239565b8786868560405161054495949392919061126d565b60405180910390a1505050505050565b60008054906101000a900473ffffffffffffffffffffffffffffffffffffffff1673ffffffffffffffffffffffffffffffffffffffff163373ffffffffffffffffffffffffffffffffffffffff16146105e2576040517f08c379a00000000000000000000000000000000000000000000000000000000081526004016105d990611339565b60405180910390fd5b60008054906101000a900473ffffffffffffffffffffffffffffffffffffffff1673ffffffffffffffffffffffffffffffffffffffff166108fc479081150290604051600060405180830381858888f19350505050158015610648573d6000803e3d6000fd5b50565b806001805490508110610693576040517f08c379a000000000000000000000000000000000000000000000000000000000815260040161068a906113a5565b60405180910390fd5b6000600183815481106106a9576106a86113c5565b5b906000526020600020906007020190508060040154421015610700576040517f08c379a00000000000000000000000000000000000000000000000000000000081526004016106f790611440565b60405180910390fd5b8060060160009054906101000a900460ff1615610752576040517f08c379a0000000000000000000000000000000000000000000000000000000008152600401610749906114ac565b60405180910390fd5b60018160060160006101000a81548160ff0219169083151502179055508060020160009054906101000a900473ffffffffffffffffffffffffffffffffffffffff1673ffffffffffffffffffffffffffffffffffffffff166108fc82600501549081150290604051600060405180830381858888f193505050501580156107dd573d6000803e3d6000fd5b507f5a31f5edca5237d41a024875db1596a0ffd609862996afb3af78403ff8122b4f8382600501546040516108139291906114cc565b60405180910390a1505050565b806001805490508110610868576040517f08c379a000000000000000000000000000000000000000000000000000000000815260040161085f906113a5565b60405180910390fd5b816001818154811061087d5761087c6113c5565b5b906000526020600020906007020160060160009054906101000a900460ff16156108dc576040517f08c379a00000000000000000000000000000000000000000000000000000000081526004016108d390611541565b60405180910390fd5b82600181815481106108f1576108f06113c5565b5b9060005260206000209060070201600401544210610944576040517f08c379a000000000000000000000000000000000000000000000000000000000815260040161093b90611541565b60405180910390fd5b60006001858154811061095a576109596113c5565b5b906000526020600020906007020190503481600501600082825461097e9190610f87565b925050819055507f0b5b4c52969ff7329ecf7ee536409fda87812b15a8622bc6e8cdeab3aee14a268533346040516109b893929190611561565b60405180910390a15050505050565b600073ffffffffffffffffffffffffffffffffffffffff82169050919050565b60006109f2826109c7565b9050919050565b610a02816109e7565b82525050565b6000819050919050565b610a1b81610a08565b82525050565b6000604082019050610a3660008301856109f9565b610a436020830184610a12565b9392505050565b600082825260208201905092915050565b82818337600083830152505050565b6000601f19601f8301169050919050565b6000610a878385610a4a565b9350610a94838584610a5b565b610a9d83610a6a565b840190509392505050565b6000606082019050610abd60008301876109f9565b610aca6020830186610a12565b8181036040830152610add818486610a7b565b905095945050505050565b6000604051905090565b600080fd5b600080fd5b610b0581610a08565b8114610b1057600080fd5b50565b600081359050610b2281610afc565b92915050565b600060208284031215610b3e57610b3d610af2565b5b6000610b4c84828501610b13565b91505092915050565b600081519050919050565b600082825260208201905092915050565b60005b83811015610b8f578082015181840152602081019050610b74565b60008484015250505050565b6000610ba682610b55565b610bb08185610b60565b9350610bc0818560208601610b71565b610bc981610a6a565b840191505092915050565b60008115159050919050565b610be981610bd4565b82525050565b600060e0820190508181036000830152610c09818a610b9b565b90508181036020830152610c1d8189610b9b565b9050610c2c60408301886109f9565b610c396060830187610a12565b610c466080830186610a12565b610c5360a0830185610a12565b610c6060c0830184610be0565b98975050505050505050565b6000602082019050610c8160008301846109f9565b92915050565b600080fd5b600080fd5b7f4e487b7100000000000000000000000000000000000000000000000000000000600052604160045260246000fd5b610cc982610a6a565b810181811067ffffffffffffffff82111715610ce857610ce7610c91565b5b80604052505050565b6000610cfb610ae8565b9050610d078282610cc0565b919050565b600067ffffffffffffffff821115610d2757610d26610c91565b5b610d3082610a6a565b9050602081019050919050565b6000610d50610d4b84610d0c565b610cf1565b905082815260208101848484011115610d6c57610d6b610c8c565b5b610d77848285610a5b565b509392505050565b600082601f830112610d9457610d93610c87565b5b8135610da4848260208601610d3d565b91505092915050565b610db6816109e7565b8114610dc157600080fd5b50565b600081359050610dd381610dad565b92915050565b600080600080600060a08688031215610df557610df4610af2565b5b600086013567ffffffffffffffff811115610e1357610e12610af7565b5b610e1f88828901610d7f565b955050602086013567ffffffffffffffff811115610e4057610e3f610af7565b5b610e4c88828901610d7f565b9450506040610e5d88828901610dc4565b9350506060610e6e88828901610b13565b9250506080610e7f88828901610b13565b9150509295509295909350565b7f4e487b7100000000000000000000000000000000000000000000000000000000600052602260045260246000fd5b60006002820490506001821680610ed357607f821691505b602082108103610ee657610ee5610e8c565b5b50919050565b7f476f616c206d7573742062652067726561746572207468616e207a65726f0000600082015250565b6000610f22601e83610b60565b9150610f2d82610eec565b602082019050919050565b60006020820190508181036000830152610f5181610f15565b9050919050565b7f4e487b7100000000000000000000000000000000000000000000000000000000600052601160045260246000fd5b6000610f9282610a08565b9150610f9d83610a08565b9250828201905080821115610fb557610fb4610f58565b5b92915050565b60008190508160005260206000209050919050565b60006020601f8301049050919050565b600082821b905092915050565b60006008830261101d7fffffffffffffffffffffffffffffffffffffffffffffffffffffffffffffffff82610fe0565b6110278683610fe0565b95508019841693508086168417925050509392505050565b6000819050919050565b600061106461105f61105a84610a08565b61103f565b610a08565b9050919050565b6000819050919050565b61107e83611049565b61109261108a8261106b565b848454610fed565b825550505050565b600090565b6110a761109a565b6110b2818484611075565b505050565b5b818110156110d6576110cb60008261109f565b6001810190506110b8565b5050565b601f82111561111b576110ec81610fbb565b6110f584610fd0565b81016020851015611104578190505b61111861111085610fd0565b8301826110b7565b50505b505050565b600082821c905092915050565b600061113e60001984600802611120565b1980831691505092915050565b6000611157838361112d565b9150826002028217905092915050565b61117082610b55565b67ffffffffffffffff81111561118957611188610c91565b5b6111938254610ebb565b61119e8282856110da565b600060209050601f8311600181146111d157600084156111bf578287015190505b6111c9858261114b565b865550611231565b601f1984166111df86610fbb565b60005b82811015611207578489015182556001820191506020850194506020810190506111e2565b868310156112245784890151611220601f89168261112d565b8355505b6001600288020188555050505b505050505050565b600061124482610a08565b915061124f83610a08565b925082820390508181111561126757611266610f58565b5b92915050565b600060a0820190506112826000830188610a12565b81810360208301526112948187610b9b565b90506112a360408301866109f9565b6112b06060830185610a12565b6112bd6080830184610a12565b9695505050505050565b7f4f6e6c79206f776e65722063616e20706572666f726d2074686973206163746960008201527f6f6e000000000000000000000000000000000000000000000000000000000000602082015250565b6000611323602283610b60565b915061132e826112c7565b604082019050919050565b6000602082019050818103600083015261135281611316565b9050919050565b7f43616d706169676e20646f6573206e6f74206578697374000000000000000000600082015250565b600061138f601783610b60565b915061139a82611359565b602082019050919050565b600060208201905081810360008301526113be81611382565b9050919050565b7f4e487b7100000000000000000000000000000000000000000000000000000000600052603260045260246000fd5b7f43616d706169676e20686173206e6f7420656e64656420796574000000000000600082015250565b600061142a601a83610b60565b9150611435826113f4565b602082019050919050565b600060208201905081810360008301526114598161141d565b9050919050565b7f43616d706169676e20616c726561647920656e64656400000000000000000000600082015250565b6000611496601683610b60565b91506114a182611460565b602082019050919050565b600060208201905081810360008301526114c581611489565b9050919050565b60006040820190506114e16000830185610a12565b6114ee6020830184610a12565b9392505050565b7f43616d706169676e2068617320656e6465640000000000000000000000000000600082015250565b600061152b601283610b60565b9150611536826114f5565b602082019050919050565b6000602082019050818103600083015261155a8161151e565b9050919050565b60006060820190506115766000830186610a12565b61158360208301856109f9565b6115906040830184610a12565b94935050505056fea2646970667358221220e82d0fef1b8ab7e85d2093d23a2002e0649a3d3e721e751dae7ba47ff25a7c3464736f6c63430008180033",
  "linkReferences": {},
  "deployedLinkReferences": {}
}